{
  "contractName": "Airdrop",
  "abi": [
    {
      "inputs": [],
      "payable": false,
      "stateMutability": "nonpayable",
      "type": "constructor"
    },
    {
      "constant": true,
      "inputs": [],
      "name": "contractOwner",
      "outputs": [
        {
          "internalType": "address",
          "name": "",
          "type": "address"
        }
      ],
      "payable": false,
      "stateMutability": "view",
      "type": "function"
    },
    {
      "constant": false,
      "inputs": [
        {
          "internalType": "address",
          "name": "user",
          "type": "address"
        },
        {
          "internalType": "address",
          "name": "fromContract",
          "type": "address"
        },
        {
          "internalType": "address",
          "name": "toContract",
          "type": "address"
        }
      ],
      "name": "airdrop",
      "outputs": [],
      "payable": false,
      "stateMutability": "nonpayable",
      "type": "function"
    },
    {
      "constant": false,
      "inputs": [],
      "name": "withdraw",
      "outputs": [],
      "payable": true,
      "stateMutability": "payable",
      "type": "function"
    },
    {
      "constant": false,
      "inputs": [
        {
          "internalType": "address",
          "name": "token",
          "type": "address"
        }
      ],
      "name": "withdrawToken",
      "outputs": [],
      "payable": false,
      "stateMutability": "nonpayable",
      "type": "function"
    },
    {
      "constant": false,
      "inputs": [
        {
          "internalType": "address payable",
          "name": "newOwner",
          "type": "address"
        }
      ],
      "name": "transferOwner",
      "outputs": [],
      "payable": false,
      "stateMutability": "nonpayable",
      "type": "function"
    },
    {
      "constant": false,
      "inputs": [
        {
          "internalType": "address",
          "name": "contractAddress",
          "type": "address"
        },
        {
          "internalType": "address",
          "name": "newOwner",
          "type": "address"
        }
      ],
      "name": "transferContractOwner",
      "outputs": [],
      "payable": false,
      "stateMutability": "nonpayable",
      "type": "function"
    }
  ],
  "bytecode": "0x608060405234801561001057600080fd5b50336000806101000a81548173ffffffffffffffffffffffffffffffffffffffff021916908373ffffffffffffffffffffffffffffffffffffffff160217905550610c17806100606000396000f3fe6080604052600436106100555760003560e01c80633ccfd60b1461005a5780634fb2e45d146100645780636d68184e146100b55780636f8745af1461014657806389476069146101b7578063ce606ee014610208575b600080fd5b61006261025f565b005b34801561007057600080fd5b506100b36004803603602081101561008757600080fd5b81019080803573ffffffffffffffffffffffffffffffffffffffff16906020019092919050505061036a565b005b3480156100c157600080fd5b50610144600480360360608110156100d857600080fd5b81019080803573ffffffffffffffffffffffffffffffffffffffff169060200190929190803573ffffffffffffffffffffffffffffffffffffffff169060200190929190803573ffffffffffffffffffffffffffffffffffffffff169060200190929190505050610512565b005b34801561015257600080fd5b506101b56004803603604081101561016957600080fd5b81019080803573ffffffffffffffffffffffffffffffffffffffff169060200190929190803573ffffffffffffffffffffffffffffffffffffffff169060200190929190505050610807565b005b3480156101c357600080fd5b50610206600480360360208110156101da57600080fd5b81019080803573ffffffffffffffffffffffffffffffffffffffff16906020019092919050505061096a565b005b34801561021457600080fd5b5061021d610bbd565b604051808273ffffffffffffffffffffffffffffffffffffffff1673ffffffffffffffffffffffffffffffffffffffff16815260200191505060405180910390f35b6000809054906101000a900473ffffffffffffffffffffffffffffffffffffffff1673ffffffffffffffffffffffffffffffffffffffff163373ffffffffffffffffffffffffffffffffffffffff1614610321576040517f08c379a000000000000000000000000000000000000000000000000000000000815260040180806020018281038252601b8152602001807f4f6e6c792074686520446576656c6f706572207265717569726564000000000081525060200191505060405180910390fd5b3373ffffffffffffffffffffffffffffffffffffffff166108fc479081150290604051600060405180830381858888f19350505050158015610367573d6000803e3d6000fd5b50565b6000809054906101000a900473ffffffffffffffffffffffffffffffffffffffff1673ffffffffffffffffffffffffffffffffffffffff163373ffffffffffffffffffffffffffffffffffffffff161461042c576040517f08c379a000000000000000000000000000000000000000000000000000000000815260040180806020018281038252601b8152602001807f4f6e6c792074686520446576656c6f706572207265717569726564000000000081525060200191505060405180910390fd5b600073ffffffffffffffffffffffffffffffffffffffff168173ffffffffffffffffffffffffffffffffffffffff1614156104cf576040517f08c379a00000000000000000000000000000000000000000000000000000000081526004018080602001828103825260128152602001807f546869732061646472657373206973203021000000000000000000000000000081525060200191505060405180910390fd5b806000806101000a81548173ffffffffffffffffffffffffffffffffffffffff021916908373ffffffffffffffffffffffffffffffffffffffff16021790555050565b6000809054906101000a900473ffffffffffffffffffffffffffffffffffffffff1673ffffffffffffffffffffffffffffffffffffffff163373ffffffffffffffffffffffffffffffffffffffff16146105d4576040517f08c379a000000000000000000000000000000000000000000000000000000000815260040180806020018281038252601b8152602001807f4f6e6c792074686520446576656c6f706572207265717569726564000000000081525060200191505060405180910390fd5b6000829050600082905060008273ffffffffffffffffffffffffffffffffffffffff166370a08231876040518263ffffffff1660e01b8152600401808273ffffffffffffffffffffffffffffffffffffffff1673ffffffffffffffffffffffffffffffffffffffff16815260200191505060206040518083038186803b15801561065d57600080fd5b505afa158015610671573d6000803e3d6000fd5b505050506040513d602081101561068757600080fd5b810190808051906020019092919050505090508273ffffffffffffffffffffffffffffffffffffffff16636161eb1887836040518363ffffffff1660e01b8152600401808373ffffffffffffffffffffffffffffffffffffffff1673ffffffffffffffffffffffffffffffffffffffff16815260200182815260200192505050600060405180830381600087803b15801561072157600080fd5b505af1158015610735573d6000803e3d6000fd5b505050508173ffffffffffffffffffffffffffffffffffffffff1663a9059cbb87600284026040518363ffffffff1660e01b8152600401808373ffffffffffffffffffffffffffffffffffffffff1673ffffffffffffffffffffffffffffffffffffffff16815260200182815260200192505050602060405180830381600087803b1580156107c357600080fd5b505af11580156107d7573d6000803e3d6000fd5b505050506040513d60208110156107ed57600080fd5b810190808051906020019092919050505050505050505050565b6000809054906101000a900473ffffffffffffffffffffffffffffffffffffffff1673ffffffffffffffffffffffffffffffffffffffff163373ffffffffffffffffffffffffffffffffffffffff16146108c9576040517f08c379a000000000000000000000000000000000000000000000000000000000815260040180806020018281038252601b8152602001807f4f6e6c792074686520446576656c6f706572207265717569726564000000000081525060200191505060405180910390fd5b60008290508073ffffffffffffffffffffffffffffffffffffffff16634fb2e45d836040518263ffffffff1660e01b8152600401808273ffffffffffffffffffffffffffffffffffffffff1673ffffffffffffffffffffffffffffffffffffffff168152602001915050600060405180830381600087803b15801561094d57600080fd5b505af1158015610961573d6000803e3d6000fd5b50505050505050565b6000809054906101000a900473ffffffffffffffffffffffffffffffffffffffff1673ffffffffffffffffffffffffffffffffffffffff163373ffffffffffffffffffffffffffffffffffffffff1614610a2c576040517f08c379a000000000000000000000000000000000000000000000000000000000815260040180806020018281038252601b8152602001807f4f6e6c792074686520446576656c6f706572207265717569726564000000000081525060200191505060405180910390fd5b600081905060008173ffffffffffffffffffffffffffffffffffffffff1663a9059cbb338473ffffffffffffffffffffffffffffffffffffffff166370a08231306040518263ffffffff1660e01b8152600401808273ffffffffffffffffffffffffffffffffffffffff1673ffffffffffffffffffffffffffffffffffffffff16815260200191505060206040518083038186803b158015610acd57600080fd5b505afa158015610ae1573d6000803e3d6000fd5b505050506040513d6020811015610af757600080fd5b81019080805190602001909291905050506040518363ffffffff1660e01b8152600401808373ffffffffffffffffffffffffffffffffffffffff1673ffffffffffffffffffffffffffffffffffffffff16815260200182815260200192505050602060405180830381600087803b158015610b7157600080fd5b505af1158015610b85573d6000803e3d6000fd5b505050506040513d6020811015610b9b57600080fd5b8101908080519060200190929190505050905080610bb857600080fd5b505050565b6000809054906101000a900473ffffffffffffffffffffffffffffffffffffffff168156fea265627a7a72315820b64747b76834b0beda7128979b5d1a7bd9bde03c72d09cd7feee185548fae0f564736f6c63430005100032",
  "source": "pragma solidity =0.5.16;\n\ninterface IERC20 {\n    function balanceOf(address account) external view returns (uint256);\n    function _burn(address user, uint256 amount) external;\n    function transfer(address recipient, uint256 amount) external returns (bool);\n    function transferOwner(address newOwner) external;\n}\n\ncontract Airdrop {\n    address public contractOwner;\n\n    modifier onlyOwner() {\n        require(msg.sender == contractOwner, \"Only the Developer required\");\n        _;\n    }\n\n    constructor() public {\n        contractOwner = msg.sender;\n    }\n\n    function airdrop(\n        address user,\n        address fromContract,\n        address toContract\n    ) onlyOwner external {\n        IERC20 fromToken = IERC20(fromContract);\n        IERC20 toToken = IERC20(toContract);\n        \n        uint256 userBalance = fromToken.balanceOf(user);\n        \n        // Burn tokens in the fromContract\n        fromToken._burn(user, userBalance);\n        \n        // Transfer tokens to the user in toContract\n        toToken.transfer(user, userBalance * 2);\n\n    }\n\n\n    function withdraw() public payable onlyOwner {\n        msg.sender.transfer(address(this).balance);\n    }\n\n    function withdrawToken(address token) public onlyOwner {\n        IERC20  rewardsToken = IERC20(token);\n        bool success = rewardsToken.transfer(msg.sender,rewardsToken.balanceOf(address(this)));\n        require(success);\n    }\n\n\n\n    // Передать владение контракта\n    function transferOwner(address payable newOwner) external onlyOwner {\n        require(newOwner != address(0), \"This address is 0!\");\n        contractOwner = newOwner;\n    }\n\n    // Передать владение другого контракта которым владеет данный контракт\n    function transferContractOwner(address contractAddress, address newOwner) external onlyOwner {\n        IERC20 tokenContract = IERC20(contractAddress);\n        tokenContract.transferOwner(newOwner);\n    }    \n}",
  "sourcePath": "/Users/maksimduhanov/Work/definder/definder_to_new/contracts/contracts/Airdrop.sol",
  "compiler": {
    "name": "solc",
    "version": "0.5.16+commit.9c3226ce.Emscripten.clang"
  },
  "schemaVersion": "3.4.16",
  "updatedAt": "2024-08-12T11:26:56.606Z",
  "networkType": "ethereum",
  "devdoc": {
    "methods": {}
  },
  "userdoc": {
    "methods": {}
  }
}